{
  "_format": "hh-sol-artifact-1",
  "contractName": "SupplyChain",
  "sourceName": "contracts/supplyChainManagement.sol",
  "abi": [
    {
      "inputs": [],
      "stateMutability": "nonpayable",
      "type": "constructor"
    },
    {
      "anonymous": false,
      "inputs": [
        {
          "indexed": true,
          "internalType": "bytes32",
          "name": "productId",
          "type": "bytes32"
        },
        {
          "indexed": false,
          "internalType": "string",
          "name": "name",
          "type": "string"
        }
      ],
      "name": "ProductRegistered",
      "type": "event"
    },
    {
      "anonymous": false,
      "inputs": [
        {
          "indexed": true,
          "internalType": "bytes32",
          "name": "productId",
          "type": "bytes32"
        },
        {
          "indexed": false,
          "internalType": "string",
          "name": "status",
          "type": "string"
        }
      ],
      "name": "StatusUpdated",
      "type": "event"
    },
    {
      "inputs": [
        {
          "internalType": "bytes32",
          "name": "productId",
          "type": "bytes32"
        }
      ],
      "name": "getProduct",
      "outputs": [
        {
          "internalType": "string",
          "name": "",
          "type": "string"
        },
        {
          "internalType": "string",
          "name": "",
          "type": "string"
        },
        {
          "internalType": "uint256",
          "name": "",
          "type": "uint256"
        }
      ],
      "stateMutability": "view",
      "type": "function"
    },
    {
      "inputs": [],
      "name": "owner",
      "outputs": [
        {
          "internalType": "address",
          "name": "",
          "type": "address"
        }
      ],
      "stateMutability": "view",
      "type": "function"
    },
    {
      "inputs": [
        {
          "internalType": "bytes32",
          "name": "",
          "type": "bytes32"
        }
      ],
      "name": "products",
      "outputs": [
        {
          "internalType": "string",
          "name": "name",
          "type": "string"
        },
        {
          "internalType": "string",
          "name": "status",
          "type": "string"
        },
        {
          "internalType": "uint256",
          "name": "timestamp",
          "type": "uint256"
        }
      ],
      "stateMutability": "view",
      "type": "function"
    },
    {
      "inputs": [
        {
          "internalType": "bytes32",
          "name": "productId",
          "type": "bytes32"
        },
        {
          "internalType": "string",
          "name": "name",
          "type": "string"
        }
      ],
      "name": "registerProduct",
      "outputs": [],
      "stateMutability": "nonpayable",
      "type": "function"
    },
    {
      "inputs": [
        {
          "internalType": "bytes32",
          "name": "productId",
          "type": "bytes32"
        },
        {
          "internalType": "string",
          "name": "status",
          "type": "string"
        }
      ],
      "name": "updateStatus",
      "outputs": [],
      "stateMutability": "nonpayable",
      "type": "function"
    }
  ],
  "bytecode": "0x6080604052348015600f57600080fd5b50336000806101000a81548173ffffffffffffffffffffffffffffffffffffffff021916908373ffffffffffffffffffffffffffffffffffffffff160217905550610e188061005f6000396000f3fe608060405234801561001057600080fd5b50600436106100575760003560e01c80633a20e9df1461005c57806370399a551461008e57806379054391146100aa5780638da5cb5b146100dc578063a1de2557146100fa575b600080fd5b61007660048036038101906100719190610702565b610116565b604051610085939291906107d8565b60405180910390f35b6100a860048036038101906100a39190610952565b610287565b005b6100c460048036038101906100bf9190610702565b6103f5565b6040516100d3939291906107d8565b60405180910390f35b6100e461052f565b6040516100f191906109ef565b60405180910390f35b610114600480360381019061010f9190610952565b610553565b005b6060806000806001600086815260200190815260200160002060405180606001604052908160008201805461014a90610a39565b80601f016020809104026020016040519081016040528092919081815260200182805461017690610a39565b80156101c35780601f10610198576101008083540402835291602001916101c3565b820191906000526020600020905b8154815290600101906020018083116101a657829003601f168201915b505050505081526020016001820180546101dc90610a39565b80601f016020809104026020016040519081016040528092919081815260200182805461020890610a39565b80156102555780601f1061022a57610100808354040283529160200191610255565b820191906000526020600020905b81548152906001019060200180831161023857829003601f168201915b505050505081526020016002820154815250509050806000015181602001518260400151935093509350509193909250565b60008054906101000a900473ffffffffffffffffffffffffffffffffffffffff1673ffffffffffffffffffffffffffffffffffffffff163373ffffffffffffffffffffffffffffffffffffffff1614610315576040517f08c379a000000000000000000000000000000000000000000000000000000000815260040161030c90610ab6565b60405180910390fd5b600060016000848152602001908152602001600020600001805461033890610a39565b90501161037a576040517f08c379a000000000000000000000000000000000000000000000000000000000815260040161037190610b22565b60405180910390fd5b8060016000848152602001908152602001600020600101908161039d9190610cee565b50426001600084815260200190815260200160002060020181905550817fce61af97ffbd99723d7212ed29cb809d84dae7dac847367605ca62bf49177e49826040516103e99190610dc0565b60405180910390a25050565b600160205280600052604060002060009150905080600001805461041890610a39565b80601f016020809104026020016040519081016040528092919081815260200182805461044490610a39565b80156104915780601f1061046657610100808354040283529160200191610491565b820191906000526020600020905b81548152906001019060200180831161047457829003601f168201915b5050505050908060010180546104a690610a39565b80601f01602080910402602001604051908101604052809291908181526020018280546104d290610a39565b801561051f5780601f106104f45761010080835404028352916020019161051f565b820191906000526020600020905b81548152906001019060200180831161050257829003601f168201915b5050505050908060020154905083565b60008054906101000a900473ffffffffffffffffffffffffffffffffffffffff1681565b60008054906101000a900473ffffffffffffffffffffffffffffffffffffffff1673ffffffffffffffffffffffffffffffffffffffff163373ffffffffffffffffffffffffffffffffffffffff16146105e1576040517f08c379a00000000000000000000000000000000000000000000000000000000081526004016105d890610ab6565b60405180910390fd5b60405180606001604052808281526020016040518060400160405280600a81526020017f52656769737465726564000000000000000000000000000000000000000000008152508152602001428152506001600084815260200190815260200160002060008201518160000190816106599190610cee565b50602082015181600101908161066f9190610cee565b5060408201518160020155905050817ef00a15ae1b2abd101031957586d99859c26bfdabd8e0122761339303191c3b826040516106ac9190610dc0565b60405180910390a25050565b6000604051905090565b600080fd5b600080fd5b6000819050919050565b6106df816106cc565b81146106ea57600080fd5b50565b6000813590506106fc816106d6565b92915050565b600060208284031215610718576107176106c2565b5b6000610726848285016106ed565b91505092915050565b600081519050919050565b600082825260208201905092915050565b60005b8381101561076957808201518184015260208101905061074e565b60008484015250505050565b6000601f19601f8301169050919050565b60006107918261072f565b61079b818561073a565b93506107ab81856020860161074b565b6107b481610775565b840191505092915050565b6000819050919050565b6107d2816107bf565b82525050565b600060608201905081810360008301526107f28186610786565b905081810360208301526108068185610786565b905061081560408301846107c9565b949350505050565b600080fd5b600080fd5b7f4e487b7100000000000000000000000000000000000000000000000000000000600052604160045260246000fd5b61085f82610775565b810181811067ffffffffffffffff8211171561087e5761087d610827565b5b80604052505050565b60006108916106b8565b905061089d8282610856565b919050565b600067ffffffffffffffff8211156108bd576108bc610827565b5b6108c682610775565b9050602081019050919050565b82818337600083830152505050565b60006108f56108f0846108a2565b610887565b90508281526020810184848401111561091157610910610822565b5b61091c8482856108d3565b509392505050565b600082601f8301126109395761093861081d565b5b81356109498482602086016108e2565b91505092915050565b60008060408385031215610969576109686106c2565b5b6000610977858286016106ed565b925050602083013567ffffffffffffffff811115610998576109976106c7565b5b6109a485828601610924565b9150509250929050565b600073ffffffffffffffffffffffffffffffffffffffff82169050919050565b60006109d9826109ae565b9050919050565b6109e9816109ce565b82525050565b6000602082019050610a0460008301846109e0565b92915050565b7f4e487b7100000000000000000000000000000000000000000000000000000000600052602260045260246000fd5b60006002820490506001821680610a5157607f821691505b602082108103610a6457610a63610a0a565b5b50919050565b7f4e6f7420617574686f72697a6564000000000000000000000000000000000000600082015250565b6000610aa0600e8361073a565b9150610aab82610a6a565b602082019050919050565b60006020820190508181036000830152610acf81610a93565b9050919050565b7f50726f64756374206e6f7420666f756e64000000000000000000000000000000600082015250565b6000610b0c60118361073a565b9150610b1782610ad6565b602082019050919050565b60006020820190508181036000830152610b3b81610aff565b9050919050565b60008190508160005260206000209050919050565b60006020601f8301049050919050565b600082821b905092915050565b600060088302610ba47fffffffffffffffffffffffffffffffffffffffffffffffffffffffffffffffff82610b67565b610bae8683610b67565b95508019841693508086168417925050509392505050565b6000819050919050565b6000610beb610be6610be1846107bf565b610bc6565b6107bf565b9050919050565b6000819050919050565b610c0583610bd0565b610c19610c1182610bf2565b848454610b74565b825550505050565b600090565b610c2e610c21565b610c39818484610bfc565b505050565b5b81811015610c5d57610c52600082610c26565b600181019050610c3f565b5050565b601f821115610ca257610c7381610b42565b610c7c84610b57565b81016020851015610c8b578190505b610c9f610c9785610b57565b830182610c3e565b50505b505050565b600082821c905092915050565b6000610cc560001984600802610ca7565b1980831691505092915050565b6000610cde8383610cb4565b9150826002028217905092915050565b610cf78261072f565b67ffffffffffffffff811115610d1057610d0f610827565b5b610d1a8254610a39565b610d25828285610c61565b600060209050601f831160018114610d585760008415610d46578287015190505b610d508582610cd2565b865550610db8565b601f198416610d6686610b42565b60005b82811015610d8e57848901518255600182019150602085019450602081019050610d69565b86831015610dab5784890151610da7601f891682610cb4565b8355505b6001600288020188555050505b505050505050565b60006020820190508181036000830152610dda8184610786565b90509291505056fea264697066735822122050a1f7b254a22f46874d209dce231de265592130ef3b559c4609a526ed8c9bec64736f6c634300081a0033",
  "linkReferences": {},
  "deployedLinkReferences": {}
}